{
  "contractName": "MainBridge",
  "abi": [
    {
      "inputs": [
        {
          "internalType": "address",
          "name": "_mainToken",
          "type": "address"
        },
        {
          "internalType": "address",
          "name": "_gateway",
          "type": "address"
        }
      ],
      "stateMutability": "nonpayable",
      "type": "constructor"
    },
    {
      "anonymous": false,
      "inputs": [
        {
          "indexed": true,
          "internalType": "address",
          "name": "requester",
          "type": "address"
        },
        {
          "indexed": true,
          "internalType": "bytes32",
          "name": "mainDepositHash",
          "type": "bytes32"
        },
        {
          "indexed": false,
          "internalType": "uint256",
          "name": "amount",
          "type": "uint256"
        },
        {
          "indexed": false,
          "internalType": "uint256",
          "name": "timestamp",
          "type": "uint256"
        }
      ],
      "name": "TokensLocked",
      "type": "event"
    },
    {
      "anonymous": false,
      "inputs": [
        {
          "indexed": true,
          "internalType": "address",
          "name": "requester",
          "type": "address"
        },
        {
          "indexed": true,
          "internalType": "bytes32",
          "name": "sideDepositHash",
          "type": "bytes32"
        },
        {
          "indexed": false,
          "internalType": "uint256",
          "name": "amount",
          "type": "uint256"
        },
        {
          "indexed": false,
          "internalType": "uint256",
          "name": "timestamp",
          "type": "uint256"
        }
      ],
      "name": "TokensUnlocked",
      "type": "event"
    },
    {
      "inputs": [
        {
          "internalType": "address",
          "name": "_requester",
          "type": "address"
        },
        {
          "internalType": "uint256",
          "name": "_bridgedAmount",
          "type": "uint256"
        },
        {
          "internalType": "bytes32",
          "name": "_mainDepositHash",
          "type": "bytes32"
        }
      ],
      "name": "lockTokens",
      "outputs": [],
      "stateMutability": "nonpayable",
      "type": "function"
    },
    {
      "inputs": [
        {
          "internalType": "address",
          "name": "_requester",
          "type": "address"
        },
        {
          "internalType": "uint256",
          "name": "_bridgedAmount",
          "type": "uint256"
        },
        {
          "internalType": "bytes32",
          "name": "_sideDepositHash",
          "type": "bytes32"
        }
      ],
      "name": "unlockTokens",
      "outputs": [],
      "stateMutability": "nonpayable",
      "type": "function"
    }
  ],
  "bytecode": "0x608060405234801561001057600080fd5b5060405161071a38038061071a8339818101604052810190610032919061011d565b816000806101000a81548173ffffffffffffffffffffffffffffffffffffffff021916908373ffffffffffffffffffffffffffffffffffffffff16021790555080600160006101000a81548173ffffffffffffffffffffffffffffffffffffffff021916908373ffffffffffffffffffffffffffffffffffffffff160217905550505061015d565b600080fd5b600073ffffffffffffffffffffffffffffffffffffffff82169050919050565b60006100ea826100bf565b9050919050565b6100fa816100df565b811461010557600080fd5b50565b600081519050610117816100f1565b92915050565b60008060408385031215610134576101336100ba565b5b600061014285828601610108565b925050602061015385828601610108565b9150509250929050565b6105ae8061016c6000396000f3fe608060405234801561001057600080fd5b50600436106100365760003560e01c806341d5e8b21461003b578063e289b1f714610057575b600080fd5b610055600480360381019061005091906103ad565b610073565b005b610071600480360381019061006c91906103ad565b610159565b005b600160009054906101000a900473ffffffffffffffffffffffffffffffffffffffff1673ffffffffffffffffffffffffffffffffffffffff163373ffffffffffffffffffffffffffffffffffffffff1614610103576040517f08c379a00000000000000000000000000000000000000000000000000000000081526004016100fa90610483565b60405180910390fd5b808373ffffffffffffffffffffffffffffffffffffffff167f508bc5d33807c46db43ce875d48dca24de9d41f9fcb35ce6e51daed771fafe59844260405161014c9291906104b2565b60405180910390a3505050565b600160009054906101000a900473ffffffffffffffffffffffffffffffffffffffff1673ffffffffffffffffffffffffffffffffffffffff163373ffffffffffffffffffffffffffffffffffffffff16146101e9576040517f08c379a00000000000000000000000000000000000000000000000000000000081526004016101e090610483565b60405180910390fd5b60008054906101000a900473ffffffffffffffffffffffffffffffffffffffff1673ffffffffffffffffffffffffffffffffffffffff1663a9059cbb84846040518363ffffffff1660e01b81526004016102449291906104ea565b6020604051808303816000875af1158015610263573d6000803e3d6000fd5b505050506040513d601f19601f82011682018060405250810190610287919061054b565b50808373ffffffffffffffffffffffffffffffffffffffff167f1be65607bac1bad030c52507aedf85298a68653b3b081956dd427e03c9fe354684426040516102d19291906104b2565b60405180910390a3505050565b600080fd5b600073ffffffffffffffffffffffffffffffffffffffff82169050919050565b600061030e826102e3565b9050919050565b61031e81610303565b811461032957600080fd5b50565b60008135905061033b81610315565b92915050565b6000819050919050565b61035481610341565b811461035f57600080fd5b50565b6000813590506103718161034b565b92915050565b6000819050919050565b61038a81610377565b811461039557600080fd5b50565b6000813590506103a781610381565b92915050565b6000806000606084860312156103c6576103c56102de565b5b60006103d48682870161032c565b93505060206103e586828701610362565b92505060406103f686828701610398565b9150509250925092565b600082825260208201905092915050565b7f6f6e6c7920676174657761792063616e2065786563757465207468697320667560008201527f6e6374696f6e0000000000000000000000000000000000000000000000000000602082015250565b600061046d602683610400565b915061047882610411565b604082019050919050565b6000602082019050818103600083015261049c81610460565b9050919050565b6104ac81610341565b82525050565b60006040820190506104c760008301856104a3565b6104d460208301846104a3565b9392505050565b6104e481610303565b82525050565b60006040820190506104ff60008301856104db565b61050c60208301846104a3565b9392505050565b60008115159050919050565b61052881610513565b811461053357600080fd5b50565b6000815190506105458161051f565b92915050565b600060208284031215610561576105606102de565b5b600061056f84828501610536565b9150509291505056fea2646970667358221220e589449b1c17f09bb88842eabec33b22e7f15bfe7c64ceee3d7bdb0da76e8d3e64736f6c634300080f0033",
  "immutableReferences": {},
  "source": "// SPDX-License-Identifier: MIT\npragma solidity ^0.8.0;\n\n//Remix style import\n//import { IERC20 } from \"@openzeppelin/contracts@4.0.0/token/ERC20/IERC20.sol\";\n\n//Brownie style import\nimport '@OpenZeppelin/contracts/token/ERC20/IERC20.sol';\n\n\ncontract MainBridge {\n\n    IERC20 private mainToken;\n\n    address gateway;\n\n    event TokensLocked(address indexed requester, bytes32 indexed mainDepositHash, uint amount, uint timestamp);\n    event TokensUnlocked(address indexed requester, bytes32 indexed sideDepositHash, uint amount, uint timestamp);\n\n    constructor (address _mainToken, address _gateway) {\n        mainToken = IERC20(_mainToken);\n        gateway = _gateway;\n    }\n\n    function lockTokens (address _requester, uint _bridgedAmount, bytes32 _mainDepositHash) onlyGateway external {\n        emit TokensLocked(_requester, _mainDepositHash, _bridgedAmount, block.timestamp);\n    }\n\n    function unlockTokens (address _requester, uint _bridgedAmount, bytes32 _sideDepositHash) onlyGateway external {\n        mainToken.transfer(_requester, _bridgedAmount);\n        emit TokensUnlocked(_requester, _sideDepositHash, _bridgedAmount, block.timestamp);\n    }\n\n    modifier onlyGateway {\n      require(msg.sender == gateway, \"only gateway can execute this function\");\n      _;\n    }\n    \n\n}\n",
  "sourcePath": "D:\\27_ERC20_Bridge_POC-master\\contracts\\MainBridge.sol",
  "compiler": {
    "name": "solc",
    "version": "0.8.15+commit.e14f2714.Emscripten.clang"
  },
  "schemaVersion": "3.4.7",
  "updatedAt": "2022-06-18T19:36:08.565Z",
  "networkType": "ethereum",
  "devdoc": {
    "kind": "dev",
    "methods": {},
    "version": 1
  },
  "userdoc": {
    "kind": "user",
    "methods": {},
    "version": 1
  }
}