{
  "contractName": "SideBridge",
  "abi": [
    {
      "inputs": [
        {
          "internalType": "address",
          "name": "_gateway",
          "type": "address"
        }
      ],
      "stateMutability": "nonpayable",
      "type": "constructor"
    },
    {
      "anonymous": false,
      "inputs": [
        {
          "indexed": true,
          "internalType": "uint256",
          "name": "timestamp",
          "type": "uint256"
        }
      ],
      "name": "BridgeInitialized",
      "type": "event"
    },
    {
      "anonymous": false,
      "inputs": [
        {
          "indexed": true,
          "internalType": "address",
          "name": "requester",
          "type": "address"
        },
        {
          "indexed": true,
          "internalType": "bytes32",
          "name": "mainDepositHash",
          "type": "bytes32"
        },
        {
          "indexed": false,
          "internalType": "uint256",
          "name": "amount",
          "type": "uint256"
        },
        {
          "indexed": false,
          "internalType": "uint256",
          "name": "timestamp",
          "type": "uint256"
        }
      ],
      "name": "TokensBridged",
      "type": "event"
    },
    {
      "anonymous": false,
      "inputs": [
        {
          "indexed": true,
          "internalType": "address",
          "name": "requester",
          "type": "address"
        },
        {
          "indexed": true,
          "internalType": "bytes32",
          "name": "sideDepositHash",
          "type": "bytes32"
        },
        {
          "indexed": false,
          "internalType": "uint256",
          "name": "amount",
          "type": "uint256"
        },
        {
          "indexed": false,
          "internalType": "uint256",
          "name": "timestamp",
          "type": "uint256"
        }
      ],
      "name": "TokensReturned",
      "type": "event"
    },
    {
      "inputs": [
        {
          "internalType": "address",
          "name": "_childTokenAddress",
          "type": "address"
        }
      ],
      "name": "initializeBridge",
      "outputs": [],
      "stateMutability": "nonpayable",
      "type": "function"
    },
    {
      "inputs": [
        {
          "internalType": "address",
          "name": "_requester",
          "type": "address"
        },
        {
          "internalType": "uint256",
          "name": "_bridgedAmount",
          "type": "uint256"
        },
        {
          "internalType": "bytes32",
          "name": "_mainDepositHash",
          "type": "bytes32"
        }
      ],
      "name": "bridgeTokens",
      "outputs": [],
      "stateMutability": "nonpayable",
      "type": "function"
    },
    {
      "inputs": [
        {
          "internalType": "address",
          "name": "_requester",
          "type": "address"
        },
        {
          "internalType": "uint256",
          "name": "_bridgedAmount",
          "type": "uint256"
        },
        {
          "internalType": "bytes32",
          "name": "_sideDepositHash",
          "type": "bytes32"
        }
      ],
      "name": "returnTokens",
      "outputs": [],
      "stateMutability": "nonpayable",
      "type": "function"
    }
  ],
  "bytecode": "0x608060405234801561001057600080fd5b50604051610a14380380610a148339818101604052810190610032919061011d565b80600260006101000a81548173ffffffffffffffffffffffffffffffffffffffff021916908373ffffffffffffffffffffffffffffffffffffffff16021790555033600160006101000a81548173ffffffffffffffffffffffffffffffffffffffff021916908373ffffffffffffffffffffffffffffffffffffffff1602179055505061014a565b600080fd5b600073ffffffffffffffffffffffffffffffffffffffff82169050919050565b60006100ea826100bf565b9050919050565b6100fa816100df565b811461010557600080fd5b50565b600081519050610117816100f1565b92915050565b600060208284031215610133576101326100ba565b5b600061014184828501610108565b91505092915050565b6108bb806101596000396000f3fe608060405234801561001057600080fd5b50600436106100415760003560e01c80632065f2c0146100465780635fa420a9146100625780637a0627911461007e575b600080fd5b610060600480360381019061005b919061056d565b61009a565b005b61007c60048036038101906100779190610606565b610188565b005b61009860048036038101906100939190610606565b610348565b005b600160009054906101000a900473ffffffffffffffffffffffffffffffffffffffff1673ffffffffffffffffffffffffffffffffffffffff163373ffffffffffffffffffffffffffffffffffffffff161461012a576040517f08c379a0000000000000000000000000000000000000000000000000000000008152600401610121906106dc565b60405180910390fd5b806000806101000a81548173ffffffffffffffffffffffffffffffffffffffff021916908373ffffffffffffffffffffffffffffffffffffffff1602179055506001600060146101000a81548160ff02191690831515021790555050565b600060149054906101000a900460ff166101d7576040517f08c379a00000000000000000000000000000000000000000000000000000000081526004016101ce90610748565b60405180910390fd5b600260009054906101000a900473ffffffffffffffffffffffffffffffffffffffff1673ffffffffffffffffffffffffffffffffffffffff163373ffffffffffffffffffffffffffffffffffffffff1614610267576040517f08c379a000000000000000000000000000000000000000000000000000000000815260040161025e906107da565b60405180910390fd5b60008054906101000a900473ffffffffffffffffffffffffffffffffffffffff1673ffffffffffffffffffffffffffffffffffffffff166342966c68836040518263ffffffff1660e01b81526004016102c09190610809565b600060405180830381600087803b1580156102da57600080fd5b505af11580156102ee573d6000803e3d6000fd5b50505050808373ffffffffffffffffffffffffffffffffffffffff167fba3809a24948d41e15773b22a28a1c0933973b2987dd15c6d028ca91397a4bd6844260405161033b929190610824565b60405180910390a3505050565b600060149054906101000a900460ff16610397576040517f08c379a000000000000000000000000000000000000000000000000000000000815260040161038e90610748565b60405180910390fd5b600260009054906101000a900473ffffffffffffffffffffffffffffffffffffffff1673ffffffffffffffffffffffffffffffffffffffff163373ffffffffffffffffffffffffffffffffffffffff1614610427576040517f08c379a000000000000000000000000000000000000000000000000000000000815260040161041e906107da565b60405180910390fd5b60008054906101000a900473ffffffffffffffffffffffffffffffffffffffff1673ffffffffffffffffffffffffffffffffffffffff166340c10f1984846040518363ffffffff1660e01b815260040161048292919061085c565b600060405180830381600087803b15801561049c57600080fd5b505af11580156104b0573d6000803e3d6000fd5b50505050808373ffffffffffffffffffffffffffffffffffffffff167f8dc81f2443de6a44d7971a95a7a73309a62194b83fabf4e9c9e81310c4e83c9f84426040516104fd929190610824565b60405180910390a3505050565b600080fd5b600073ffffffffffffffffffffffffffffffffffffffff82169050919050565b600061053a8261050f565b9050919050565b61054a8161052f565b811461055557600080fd5b50565b60008135905061056781610541565b92915050565b6000602082840312156105835761058261050a565b5b600061059184828501610558565b91505092915050565b6000819050919050565b6105ad8161059a565b81146105b857600080fd5b50565b6000813590506105ca816105a4565b92915050565b6000819050919050565b6105e3816105d0565b81146105ee57600080fd5b50565b600081359050610600816105da565b92915050565b60008060006060848603121561061f5761061e61050a565b5b600061062d86828701610558565b935050602061063e868287016105bb565b925050604061064f868287016105f1565b9150509250925092565b600082825260208201905092915050565b7f4f6e6c79206f776e65722063616e206578656375746520746869732066756e6360008201527f74696f6e00000000000000000000000000000000000000000000000000000000602082015250565b60006106c6602483610659565b91506106d18261066a565b604082019050919050565b600060208201905081810360008301526106f5816106b9565b9050919050565b7f42726964676520686173206e6f74206265656e20696e697469616c697a656400600082015250565b6000610732601f83610659565b915061073d826106fc565b602082019050919050565b6000602082019050818103600083015261076181610725565b9050919050565b7f4f6e6c7920676174657761792063616e2065786563757465207468697320667560008201527f6e6374696f6e0000000000000000000000000000000000000000000000000000602082015250565b60006107c4602683610659565b91506107cf82610768565b604082019050919050565b600060208201905081810360008301526107f3816107b7565b9050919050565b6108038161059a565b82525050565b600060208201905061081e60008301846107fa565b92915050565b600060408201905061083960008301856107fa565b61084660208301846107fa565b9392505050565b6108568161052f565b82525050565b6000604082019050610871600083018561084d565b61087e60208301846107fa565b939250505056fea2646970667358221220f15e62029ff1a3a077a91f80f9c8994d353325810ef57085aaa60d5989e56e5264736f6c634300080f0033",
  "immutableReferences": {},
  "source": "// SPDX-License-Identifier: MIT\npragma solidity ^0.8.0;\n\nimport './IERC20Child.sol';\n\ncontract SideBridge {\n\n    event BridgeInitialized(uint indexed timestamp);\n    event TokensBridged(address indexed requester, bytes32 indexed mainDepositHash, uint amount, uint timestamp);\n    event TokensReturned(address indexed requester, bytes32 indexed sideDepositHash, uint amount, uint timestamp);\n    \n    IERC20Child private sideToken;\n    bool bridgeInitState;\n    address owner;\n    address gateway;\n\n\n    constructor (address _gateway) {\n        gateway = _gateway;\n        owner = msg.sender;\n    }\n\n    function initializeBridge (address _childTokenAddress) onlyOwner external {\n        sideToken = IERC20Child(_childTokenAddress);\n        bridgeInitState = true;\n    }\n\n    function bridgeTokens (address _requester, uint _bridgedAmount, bytes32 _mainDepositHash) verifyInitialization onlyGateway  external {\n        sideToken.mint(_requester,_bridgedAmount);\n        emit TokensBridged(_requester, _mainDepositHash, _bridgedAmount, block.timestamp);\n    }\n\n    function returnTokens (address _requester, uint _bridgedAmount, bytes32 _sideDepositHash) verifyInitialization onlyGateway external {\n        sideToken.burn(_bridgedAmount);\n        emit TokensReturned(_requester, _sideDepositHash, _bridgedAmount, block.timestamp);\n    }\n\n    modifier verifyInitialization {\n      require(bridgeInitState, \"Bridge has not been initialized\");\n      _;\n    }\n    \n    modifier onlyGateway {\n      require(msg.sender == gateway, \"Only gateway can execute this function\");\n      _;\n    }\n\n    modifier onlyOwner {\n      require(msg.sender == owner, \"Only owner can execute this function\");\n      _;\n    }\n    \n\n}",
  "sourcePath": "D:\\27_ERC20_Bridge_POC-master\\contracts\\SideBridge.sol",
  "compiler": {
    "name": "solc",
    "version": "0.8.15+commit.e14f2714.Emscripten.clang"
  },
  "schemaVersion": "3.4.7",
  "updatedAt": "2022-06-18T19:36:08.567Z",
  "networkType": "ethereum",
  "devdoc": {
    "kind": "dev",
    "methods": {},
    "version": 1
  },
  "userdoc": {
    "kind": "user",
    "methods": {},
    "version": 1
  }
}